{
  "_format": "hh-sol-artifact-1",
  "contractName": "Bank",
  "sourceName": "contracts/BankContract.sol",
  "abi": [
    {
      "inputs": [],
      "stateMutability": "nonpayable",
      "type": "constructor"
    },
    {
      "inputs": [],
      "name": "bankName",
      "outputs": [
        {
          "internalType": "string",
          "name": "",
          "type": "string"
        }
      ],
      "stateMutability": "view",
      "type": "function"
    },
    {
      "inputs": [],
      "name": "bankOwner",
      "outputs": [
        {
          "internalType": "address",
          "name": "",
          "type": "address"
        }
      ],
      "stateMutability": "view",
      "type": "function"
    },
    {
      "inputs": [
        {
          "internalType": "address",
          "name": "",
          "type": "address"
        }
      ],
      "name": "customerBalance",
      "outputs": [
        {
          "internalType": "uint256",
          "name": "",
          "type": "uint256"
        }
      ],
      "stateMutability": "view",
      "type": "function"
    },
    {
      "inputs": [],
      "name": "depositMoney",
      "outputs": [],
      "stateMutability": "payable",
      "type": "function"
    },
    {
      "inputs": [],
      "name": "getBankBalance",
      "outputs": [
        {
          "internalType": "uint256",
          "name": "",
          "type": "uint256"
        }
      ],
      "stateMutability": "view",
      "type": "function"
    },
    {
      "inputs": [],
      "name": "getCustomerBalance",
      "outputs": [
        {
          "internalType": "uint256",
          "name": "",
          "type": "uint256"
        }
      ],
      "stateMutability": "view",
      "type": "function"
    },
    {
      "inputs": [
        {
          "internalType": "string",
          "name": "_name",
          "type": "string"
        }
      ],
      "name": "setBankName",
      "outputs": [],
      "stateMutability": "nonpayable",
      "type": "function"
    },
    {
      "inputs": [
        {
          "internalType": "address payable",
          "name": "_to",
          "type": "address"
        },
        {
          "internalType": "uint256",
          "name": "_amount",
          "type": "uint256"
        }
      ],
      "name": "withdrawMoney",
      "outputs": [],
      "stateMutability": "payable",
      "type": "function"
    }
  ],
  "bytecode": "0x608060405234801561001057600080fd5b50336000806101000a81548173ffffffffffffffffffffffffffffffffffffffff021916908373ffffffffffffffffffffffffffffffffffffffff160217905550610cb4806100606000396000f3fe60806040526004361061007b5760003560e01c80637b83b50b1161004e5780637b83b50b1461011b578063a853409a14610146578063e147aaa714610171578063f274c8971461019c5761007b565b806316c05aa21461008057806327d358011461008a57806337ebe47b146100b557806370142690146100f2575b600080fd5b6100886101b8565b005b34801561009657600080fd5b5061009f610254565b6040516100ac9190610935565b60405180910390f35b3480156100c157600080fd5b506100dc60048036038101906100d79190610711565b6102e2565b6040516100e991906109b7565b60405180910390f35b3480156100fe57600080fd5b5061011960048036038101906101149190610776565b6102fa565b005b34801561012757600080fd5b506101306103a2565b60405161013d91906109b7565b60405180910390f35b34801561015257600080fd5b5061015b610439565b60405161016891906109b7565b60405180910390f35b34801561017d57600080fd5b50610186610480565b604051610193919061091a565b60405180910390f35b6101b660048036038101906101b1919061073a565b6104a4565b005b60003414156101fc576040517f08c379a00000000000000000000000000000000000000000000000000000000081526004016101f390610997565b60405180910390fd5b34600260003373ffffffffffffffffffffffffffffffffffffffff1673ffffffffffffffffffffffffffffffffffffffff168152602001908152602001600020600082825461024b9190610a4f565b92505081905550565b6001805461026190610b69565b80601f016020809104026020016040519081016040528092919081815260200182805461028d90610b69565b80156102da5780601f106102af576101008083540402835291602001916102da565b820191906000526020600020905b8154815290600101906020018083116102bd57829003601f168201915b505050505081565b60026020528060005260406000206000915090505481565b60008054906101000a900473ffffffffffffffffffffffffffffffffffffffff1673ffffffffffffffffffffffffffffffffffffffff163373ffffffffffffffffffffffffffffffffffffffff1614610388576040517f08c379a000000000000000000000000000000000000000000000000000000000815260040161037f90610957565b60405180910390fd5b806001908051906020019061039e9291906105c7565b5050565b60008060009054906101000a900473ffffffffffffffffffffffffffffffffffffffff1673ffffffffffffffffffffffffffffffffffffffff163373ffffffffffffffffffffffffffffffffffffffff1614610433576040517f08c379a000000000000000000000000000000000000000000000000000000000815260040161042a90610957565b60405180910390fd5b47905090565b6000600260003373ffffffffffffffffffffffffffffffffffffffff1673ffffffffffffffffffffffffffffffffffffffff16815260200190815260200160002054905090565b60008054906101000a900473ffffffffffffffffffffffffffffffffffffffff1681565b600260003373ffffffffffffffffffffffffffffffffffffffff1673ffffffffffffffffffffffffffffffffffffffff16815260200190815260200160002054811115610526576040517f08c379a000000000000000000000000000000000000000000000000000000000815260040161051d90610977565b60405180910390fd5b80600260003373ffffffffffffffffffffffffffffffffffffffff1673ffffffffffffffffffffffffffffffffffffffff16815260200190815260200160002060008282546105759190610aa5565b925050819055508173ffffffffffffffffffffffffffffffffffffffff166108fc829081150290604051600060405180830381858888f193505050501580156105c2573d6000803e3d6000fd5b505050565b8280546105d390610b69565b90600052602060002090601f0160209004810192826105f5576000855561063c565b82601f1061060e57805160ff191683800117855561063c565b8280016001018555821561063c579182015b8281111561063b578251825591602001919060010190610620565b5b509050610649919061064d565b5090565b5b8082111561066657600081600090555060010161064e565b5090565b600061067d61067884610a03565b6109d2565b90508281526020810184848401111561069557600080fd5b6106a0848285610b27565b509392505050565b6000813590506106b781610c39565b92915050565b6000813590506106cc81610c50565b92915050565b600082601f8301126106e357600080fd5b81356106f384826020860161066a565b91505092915050565b60008135905061070b81610c67565b92915050565b60006020828403121561072357600080fd5b6000610731848285016106a8565b91505092915050565b6000806040838503121561074d57600080fd5b600061075b858286016106bd565b925050602061076c858286016106fc565b9150509250929050565b60006020828403121561078857600080fd5b600082013567ffffffffffffffff8111156107a257600080fd5b6107ae848285016106d2565b91505092915050565b6107c081610ad9565b82525050565b60006107d182610a33565b6107db8185610a3e565b93506107eb818560208601610b36565b6107f481610c28565b840191505092915050565b600061080c602683610a3e565b91507f596f7520617265206e6f7420617574686f72697a656420666f7220746869732060008301527f616374696f6e00000000000000000000000000000000000000000000000000006020830152604082019050919050565b6000610872603683610a3e565b91507f596f7520646f6e277420686176652073756666696369656e742062616c616e6360008301527f6520666f722074686973207472616e73616374696f6e000000000000000000006020830152604082019050919050565b60006108d8601c83610a3e565b91507f596f75206e65656420746f2073656e64206d6f72652066756e647321000000006000830152602082019050919050565b61091481610b1d565b82525050565b600060208201905061092f60008301846107b7565b92915050565b6000602082019050818103600083015261094f81846107c6565b905092915050565b60006020820190508181036000830152610970816107ff565b9050919050565b6000602082019050818103600083015261099081610865565b9050919050565b600060208201905081810360008301526109b0816108cb565b9050919050565b60006020820190506109cc600083018461090b565b92915050565b6000604051905081810181811067ffffffffffffffff821117156109f9576109f8610bf9565b5b8060405250919050565b600067ffffffffffffffff821115610a1e57610a1d610bf9565b5b601f19601f8301169050602081019050919050565b600081519050919050565b600082825260208201905092915050565b6000610a5a82610b1d565b9150610a6583610b1d565b9250827fffffffffffffffffffffffffffffffffffffffffffffffffffffffffffffffff03821115610a9a57610a99610b9b565b5b828201905092915050565b6000610ab082610b1d565b9150610abb83610b1d565b925082821015610ace57610acd610b9b565b5b828203905092915050565b6000610ae482610afd565b9050919050565b6000610af682610afd565b9050919050565b600073ffffffffffffffffffffffffffffffffffffffff82169050919050565b6000819050919050565b82818337600083830152505050565b60005b83811015610b54578082015181840152602081019050610b39565b83811115610b63576000848401525b50505050565b60006002820490506001821680610b8157607f821691505b60208210811415610b9557610b94610bca565b5b50919050565b7f4e487b7100000000000000000000000000000000000000000000000000000000600052601160045260246000fd5b7f4e487b7100000000000000000000000000000000000000000000000000000000600052602260045260246000fd5b7f4e487b7100000000000000000000000000000000000000000000000000000000600052604160045260246000fd5b6000601f19601f8301169050919050565b610c4281610ad9565b8114610c4d57600080fd5b50565b610c5981610aeb565b8114610c6457600080fd5b50565b610c7081610b1d565b8114610c7b57600080fd5b5056fea26469706673582212201b14c712e9508501ad534850e3214cb1147208d31e51bad1c6b4c09885ed0e6e64736f6c63430008000033",
  "linkReferences": {},
  "deployedLinkReferences": {}
}